:0C05E3000000000000000000000000000C
:0605FB001205900200034E
:10059000EF4488F5BC00000000E5BC30E4FB53BC30
:0405A000EFAFBD22DA
:0F05C50075985A438920758DFD758BFDD28E2256
:1005A400759D1CD290E4F5BD75BC807F02FE0205EA
:0105B40075D1
:080003003099FDC2998F99228A
:10057500EF1FAA0670011E4A60107C137D88ED1DD1
:0A058500AA0470011C4A60E880F42B
:01058F002249
:040553007F1E7E0089
:10055700D3EF9400EE940040147DE87C03ED1D700A
:0D056700011CED4C70F7EF1F70E61E80E3E5
:010574002264
:04000E008F2C8D2D79
:10001200782E7C007D007BFF7A0579E37E007F0CE1
:100022001203ADE4F53DF53CF53BF53AF541F540FB
:10003200F53FF53EC3E52C952DD3941440030202FF
:100042009FC3E52C952DFFE49400FEE48F318E30A2
:10005200F52FF52EF516851014850F13850E1285D2
:100062000D11850C10850B0F850A0E85090D8F0C5D
:100072008E0B852F0A852E09AF10AE0FAD0EAC0D7B
:10008200AB0CAA0BA90AA809D3120430401DE50C37
:100092009510F531E50B950FF530E50A950EF52F24
:1000A200E509950DF52EE4F515801CC3E510950CB8
:1000B200F531E50F950BF530E50E950AF52FE50DB7
:1000C2009509F52E751501E47F02FEFDFCAB10AA21
:1000D2000FA90EA80D1203D38F398E388D378C36A7
:1000E200E50C2514FFE50B3513FEE50A3512FDE597
:1000F200093511FCAB39AA38A937A836C312043026
:10010200E50C502C2514FFE50B3513FEE50A3512DC
:10011200FDE5093511FCC3EF9539F539EE9538F552
:1001220038ED9537F537EC9536F536E4F517802A34
:100132002514FBE50B3513FAE50A3512F9E5093505
:1001420011F8C3E5399BF539E5389AF538E5379961
:10015200F537E53698F536751701AF1BAE1AAD19AE
:10016200AC181202A6AB31AA30A92FA82E1203D3C3
:100172008F318E308D2F8C2EAF1FAE1EAD1DAC1C5D
:100182001202A6AB0CAA0BA90AA8091203D38F3537
:100192008E348D338C32AF23AE22AD21AC201202CD
:1001A200A6AB39AA38A937A8361203D38F398E38AD
:1001B2008D378C36E515701AE53D2531F53DE53C68
:1001C2003530F53CE53B352FF53BE53A352EF53A32
:1001D2008018E5412531F541E5403530F540E53FF0
:1001E200352FF53FE53E352EF53EE5167018E53D17
:1001F2002535F53DE53C3534F53CE53B3533F53BFE
:10020200E53A3532F53AE517701AE53D2539F53DFF
:10021200E53C3538F53CE53B3537F53BE53A3536D7
:10022200F53A8018E5412539F541E5403538F54084
:10023200E53F3537F53FE53E3536F53EE4FCFDE575
:100242003D2525F53DE53C3524F53CED353BF53BBB
:10025200EC353AF53AAF41AE40AD3FAC3EAB3DAACC
:100262003CA93BF8D31204304039E53D9541F531C4
:10027200E53C9540F530E53B953FF52FE53A953E57
:10028200F52EE47F14FEFDFCAB31AA30A92FA82E77
:10029200C31204305007853024853125227524008D
:0302A200752514AB
:0102A5002236
:1004CE00E4FF1205907528008F29C3E5279529E5CD
:1004DE00269528400BAF27AD2912000ED2A1C2A23D
:1004EE00C3E5279529E5269528500BAF29AD271290
:0A04FE00000EC2A1D2A285252A2219
:03060100D2A02262
:100530007466F51BF51AF519751840751F7B751E45
:1005400014751DCE751C3FE4F523F5227521D47575
:0305500020412225
:1005B500438901758CFF758A9CD2AFD2A9D28C2252
:0F05D4001206011205301205A41205C50205B565
:100446001205D420802A1205532080243080FD30E6
:10045600801EC2A1D2A2752A0C7F187E01120557F2
:10046600D2A1C2A2752A0C7F187E0112055780DF21
:1004760020812A1205532081243081FD30811EC23D
:10048600A1D2A2752A127F2C7E01120557D2A1C2D3
:10049600A2752A127F2C7E0112055780DF20821753
:1004A6001205532082113082FD30820B75260075AD
:1004B60027AB1204CE80F2C2A1C2A2E4F52A7FE8DD
:0804C6007E03120557020449F0
:03000B00020508E3
:10050800C0E0C0D00508E508D3952A5004D2A080E1
:1005180002C2A0E508B41405B2A0750800758CFFE6
:08052800758A9CD0D0D0E032AE
:1002A600EDD2E7CD33EC3392D524814006E4FFFE50
:1002B600FDFC22FCE4CFCECDCC24E0501174FF80AF
:1002C600EDC3CC13CCCD13CDCE13CECF13CF04704C
:0702D600F030D5DE02042226
:030000000205EF07
:0C05EF00787FE4F6D8FD758141020446D7
:1002DD00E709F608DFFA8046E709F208DFFA803E03
:1002ED0088828C83E709F0A3DFFA8032E309F608F0
:1002FD00DFFA8078E309F208DFFA807088828C8358
:10030D00E309F0A3DFFA806489828A83E0A3F6080B
:10031D00DFFA805889828A83E0A3F208DFFA804CE5
:10032D0080D280FA80C680D4806980F280338010BC
:10033D0080A680EA809A80A880DA80E280CA803325
:10034D0089828A83ECFAE493A3C8C582C8CCC5839D
:10035D00CCF0A3C8C582C8CCC583CCDFE9DEE7806D
:10036D000D89828A83E493A3F608DFF9ECFAA9F0EC
:10037D00EDFB2289828A83ECFAE0A3C8C582C8CC42
:10038D00C583CCF0A3C8C582C8CCC583CCDFEADE5B
:10039D00E880DB89828A83E493A3F208DFF980CCBD
:1003AD0088F0EF60010E4E60C388F0ED2402B404B6
:1003BD000050B9F582EB2402B4040050AF2323455D
:0603CD00822390032D7352
:1003D300E88FF0A4CC8BF0A42CFCE98EF0A42CFCC9
:1003E3008AF0EDA42CFCEA8EF0A4CDA8F08BF0A447
:1003F3002DCC3825F0FDE98FF0A42CCD35F0FCEBA6
:100403008EF0A4FEA9F0EB8FF0A4CFC5F02ECD396A
:0F041300FEE43CFCEAA42DCE35F0FDE43CFC22D7
:0E042200C3E49FFFE49EFEE49DFDE49CFC22EB
:10043000EB9FF5F0EA9E42F0E99D42F0EC6480C843
:0604400064809845F022E3
:00000001FF
