:10003C00120075120064E4FF1200847F647E0012CB
:04004C00000380F23B
:0D0084008F0812009DAF0812005002009D71
:10005000EF4488F5BC00000000E5BC30E4FB53BC75
:04006000EFAFBD221F
:0F00750075985A758920758DFD758BFDD28E2279
:10006400759D1CD290E4F5BD75BC807F02FE020034
:01007400216A
:08009D003099FDC2998F9922F0
:10002100EF1FAA0670011E4A60107C137D88ED1D2A
:0A003100AA0470011C4A60E880F484
:01003B0022A2
:10000300D3EF9400EE940040147D107C27ED1D7017
:0D001300011CED4C70F7EF1F70E61E80E33E
:0100200022BD
:030000000200916A
:0C009100787FE4F6D8FD75810802003C81
:00000001FF
